:020000040020DA
:1020000000000820352320003D232000016010003F
:10201000A9402000F93F2000CD4120000000000031
:10202000000000000000000000000000156010002B
:1020300047232000000000009D2220004D232000A7
:1020400000F002F800F0C4F80AA090E8000C824406
:102050008344AAF10107DA4501D100F0B9F8AFF2E3
:10206000090EBAE80F0013F0010F18BFFB1A43F076
:102070000103184700530100405301000A444FF088
:10208000000C10F8013B13F0070408BF10F8014BD7
:102090001D1108BF10F8015B641E05D010F8016B1C
:1020A000641E01F8016BF9D113F0080F1EBF10F880
:1020B000014BAD1C0C1B09D16D1E58BF01F801CBA3
:1020C000FAD505E014F8016B01F8016B6D1EF9D526
:1020D0009142D6D370470000103A24BF78C878C127
:1020E000FAD8520724BF30C830C144BF04680C601E
:1020F000704700000023002400250026103A28BF66
:1021000078C1FBD8520728BF30C148BF0B60704769
:102110006E2900F03285702900F0B982662914F02A
:10212000BD80652914F0BA80672914F0B780612951
:1021300014F0B68003681B0A28BF41F080016929AA
:1021400000F02A82642900F02782752900F0248299
:102150006F2900F03286782900F08582E92900F0A5
:10216000CD85E42900F0CA85F52900F0C785EF295F
:1021700000F02F86F82900F084820368DB0928BF6D
:1021800041F08001632900F03C85732900F041850E
:10219000E32901F00382F32901F00882002070474F
:1021A0001FB514F048F800F056FB01F02FFA0400B8
:1021B0000020002113F0FAF9401C6060002000218B
:1021C00013F0DEF9E06000F05BFC1FBD10B510BD40
:1021D000DFF80CD0FFF7E4FF0BF0F2FF01F0C8FAD4
:1021E0000000082003B4FFF7F1FF03BC02F09BFBE3
:1021F00002F0FF0343EA032242EA024200F0F8BB86
:1022000058585247010000002655000000202000C9
:10221000002020007FED9247010100000000000037
:1022200000000000000000000000000000000000AE
:10223000000000000000000000000000000000009E
:102240002C4B19680868B0E8F04F80F30988BFF399
:102250006F8F4FF0000080F311887047000000007E
:1022600008480068006880F308884FF0000080F399
:10227000148862B661B6BFF34F8FBFF36F8F00DF74
:1022800000BF00BF08ED00E0DFF80C00016841F47A
:1022900070010160704700BF88ED00E0EFF3098036
:1022A000BFF36F8F134B1A681EF0100F08BF20ED9D
:1022B000108A20E9F04F106009B44FF0300080F32D
:1022C0001188BFF34F8FBFF36F8F12F029FA4FF0D1
:1022D000000080F3118809BC19680868B0E8F04F65
:1022E0001EF0100F08BFB0EC108A80F30988BFF30E
:1022F0006F8F704730820020EFF305807047000039
:102300000B49D1F800C04A685CF8043B10681844D7
:1023100042F8040B8C4528BFA1F1DC0C8A4228BF8F
:10232000A1F1DC02C1F800C04A6020F00040704713
:10233000544901200648804706480047FEE7FEE76B
:10234000FEE7FEE7FEE7FEE7FEE7FEE7FEE700004A
:102350005D41200015E2200053EA020C00F0698084
:102360002DE9F04B4FF00006002B1FBFB3FA83F5A9
:1023700003FA05F424FA05F65E4012BF1643B2FADA
:1023800082F502FA05F4C5F120051EBF22FA05FC0C
:1023900044EA0C04203556EA044C4FEA144418BFB2
:1023A000641C4FF000084FF00009904271EB030CE1
:1023B00039D3002919BFB1FA81F701FA07F6B0FA4B
:1023C00080F700FA07F6C7F120071EBF20FA07FCC6
:1023D00046EA0C062037B6FBF4FCA7EB0507103FD6
:1023E00007F01F0BCBF120060CFA0BFB2CFA06F6BC
:1023F00044BFB3460026202FA4BF5E464FF0000B1B
:102400005BEA060C08BF4FF0010B19EB0B09ABFBA5
:10241000027C48EB0608C01B06FB02CC0BFB03CC7E
:1024200071EB0C01C1E70B46024641464846BDE848
:10243000F08B13B54FF000004FF00001AFF30080B8
:10244000BDE81C40704700007CB51D4616460C00D8
:10245000009001D02044401E074B7B442A46694629
:102460000190304600F0A3FB05461CB100206946F0
:1024700000F0B0FB28467CBD810700000FB4044982
:1024800010B503AA029800F0C9FB10BC5DF814FB5C
:10249000908100200FB41CB5084B06AA7B44694606
:1024A0000090059800F083FB04460020694600F088
:1024B00091FB20461CBC5DF814FB000035070000B2
:1024C0000FB47CB50C0009AA009001D02044401E36
:1024D000084B7B4469460190089800F068FB05466C
:1024E0001CB10020694600F075FB28467CBC5DF8F5
:1024F00014FB00000907000070B5044685690068F8
:10250000C10601D5302600E02026C00707D070BDE7
:10251000D4E9012130469047206A401C20626D1E9C
:10252000F6D570BD70B5044685690078C00707D13F
:1025300070BDD4E9012120209047206A401C206210
:102540006D1EF6D570BD70B50C460546012A05D046
:102550002878800600D5EA69002302E0012305E01F
:102560005B1C934202D2E05C0028F9D1A869E6180E
:10257000C01AA861286A184428622846FFF7BCFFE1
:1025800004E0D5E9012114F8010B9047B442F8D3D7
:102590002846FFF7C7FF70BD2DE9F041064600242D
:1025A00010687529314616A510D000F07BFA002876
:1025B00002DA404213A507E031688A0701D512A567
:1025C00002E0490704D511A5012401E000F073FAE7
:1025D00000210A2206F1240709E0B0FBF2FCB0FB5F
:1025E000F2F302FB1C00303078541846491C0028D6
:1025F000F3D123462A463046BDE8F04100F064BAE4
:10260000000000002D0000002B0000002000000052
:10261000F0B40D460188090502D5214C7C4402E046
:102620001F4C7C440E34002100F1240608E002F027
:102630000F071209E75D42EA03721B097754491C30
:1026400052EA0307F3D102780023120704D5702D54
:1026500006D009B1022311342246F0BC00F034BA8E
:1026600001231034F8E770B504460D462146106882
:1026700000F021FA024629462046BDE870400023BA
:10268000C6E7D21D22F00703D3E90023C0E70368A1
:10269000126843F0200303600823C3610023B7E7F7
:1026A000104501002DE9F05F894604464FF0000A0D
:1026B000DFF874B1FB44C0F820A02046E1688847E9
:1026C000002874D0252806D0D4E901219047206A3B
:1026D000401C2062F1E700265F462046E1688847FB
:1026E0002028054607DB312D05D2781910F8200C7B
:1026F00008B10643F1E7B00701D526F00406C4F897
:102700001CA00027C4F818A02A2D09D0284602F0E2
:1027100003F938B304EB8708303DC8F8185019E0C6
:1027200059F8041B204604EB87029161E168884751
:10273000012F054618D1E069002820DA26F020068E
:102740001DE0D8F8180000EB800005EB40003038A1
:10275000C8F818002046E1688847054602F0DCF812
:102760000028EED1012F0AD02E2D08D12046E16895
:1027700088477F1C0546022F46F02006C4DBA0696F
:10278000002803DA404246F00106A061F00701D0BC
:1027900026F010066C2D0BD0682D09D04C2D39D0A9
:1027A0006A2D35D0742D35D07A2D33D016E038E02F
:1027B000E1682F4620468847B842054609D16C2F6C
:1027C00026D04FF48060E1680643204688470546DE
:1027D00004E06C2F1AD04FF4807006430DB3A5F1BE
:1027E0004100192802D8203546F400664A46294699
:1027F000204626604E46FFF78BFC80B101280BD0A7
:10280000F61D26F0070000F1080956E74020E4E72E
:102810008020D8E70020D6E706F104094DE72846D6
:1028200052E7206ABDE8F09FA04401000B4910B5B3
:10283000A1F17C020A4CC2E93712372106E000EB15
:10284000104342F82130074B00FB03400B1EA1F15F
:102850000101F4DC10BD0120E8E70000F44801208C
:10286000E119D666CD0D010040EA010310B59B07C2
:102870000FD1042A0DD310C808C9121F9C42F8D0EA
:1028800020BA19BA884201D9012010BD4FF0FF309B
:1028900010BD1AB1D30703D0521C07E0002010BDB1
:1028A00010F8013B11F8014B1B1B07D110F8013B3D
:1028B00011F8014B1B1B01D1921EF1D1184610BD1E
:1028C00010B5431C02E010F8011B71B18107FAD169
:1028D0004FF0013202C88C1A8C4314EAC211F9D0AD
:1028E000C01A0A0603D0C01E10BDC01A10BD0A04CB
:1028F00001D0801E10BD0902FCD0401E10BD032A6D
:1029000040F2308010F0030C00F0158011F8013B0C
:10291000BCF1020F624498BF11F801CB00F8013BF3
:1029200038BF11F8013BA2F1040298BF00F801CBB7
:1029300038BF00F8013B11F0030300F02580083A8E
:10294000C0F0088051F8043B083A51F804CBA0E8E5
:102950000810F5E7121D5CBF51F8043B40F8043B3A
:10296000AFF30080D20724BF11F8013B11F801CB6F
:1029700048BF11F8012B24BF00F8013B00F801CB40
:1029800048BF00F8012B704710B5203AC0F00B800B
:10299000B1E81850203AA0E81850B1E81850A0E863
:1029A0001850BFF4F5AF5FEA027C24BFB1E81850BD
:1029B000A0E8185044BF18C918C0BDE810405FEA2D
:1029C000827C24BF51F8043B40F8043B08BF7047A9
:1029D000D20728BF31F8023B48BF11F8012B28BFAE
:1029E00020F8023B48BF00F8012B70474FF000026F
:1029F0000429C0F0128010F0030C00F01B80CCF111
:102A0000040CBCF1020F18BF00F8012BA8BF20F87E
:102A1000022BA1EB0C0100F00DB85FEAC17C24BFD2
:102A200000F8012B00F8012B48BF00F8012B70477C
:102A30004FF0000200B5134694469646203922BF57
:102A4000A0E80C50A0E80C50B1F12001BFF4F7AFA2
:102A5000090728BFA0E80C5048BF0CC05DF804EB84
:102A6000890028BF40F8042B08BF704748BF20F8F2
:102A7000022B11F0804F18BF00F8012B70470000A7
:102A800070B5064C7C44064D7D4403E0206820442C
:102A90008047241DAC42F9D170BD0000584A0100A6
:102AA000584A010009684A0501D540B27047C90576
:102AB000FCD500B2704709684A0501D5C0B270471D
:102AC000C905FCD580B270472DE9F0470D469946FF
:102AD0009246044600F124080168880604D5E0699E
:102AE00021F01001216000E00120A84201DD471B18
:102AF00000E00027A1697A1902EB0900081AA06119
:102B00002078C00602D42046FFF7F6FC002608E035
:102B1000D4E901211AF806009047206A401C761C6F
:102B200020624E45F4DB2078C0060AD52046FFF728
:102B3000E3FC06E0D4E9012130209047206A401CE4
:102B40002062381EA7F10107F4DC07E0D4E9012177
:102B500018F805009047206A401C2062281EA5F145
:102B60000105F3DC2046FFF7DDFC2078000602D5E6
:102B70000220BDE8F0870120FBE711680268006AC7
:102B8000530501D508700AE0D30501D5088006E099
:102B9000130603D5C217C1E9000200E00860012056
:102BA0007047000001694A1C02610878704700B54F
:102BB0008FB0CDE901310021059105497944CDE976
:102BC000031011466846FFF76DFD0FB000BD000011
:102BD000E5FFFFFF0A6802F8010B0A607047D1E9C0
:102BE00000239A4202D2531C0B601070704710B53C
:102BF000436913B1AFF3008001E0FFF7A4FC0120AB
:102C000010BD127800F124010A7000224A700122DE
:102C1000EDE711684FF0FF32E9E70000074B70B5B0
:102C20000D467B44FFF7C3FF0446284600F0C2FC74
:102C300010B14FF0FF3070BD204670BD075400004A
:102C40002DE9FF5F15468A460446DFF8AC80F8445C
:102C50000027D8E900103E46CDE9001010E03AF810
:102C600016106A4602A800F0A9FC411C07D0217882
:102C7000890603D5E269391891420DD80744761CBC
:102C80002078800602D5E069B84205DDAE42E6DB79
:102C90003AF816000028E2D1A069C01BA0612046C6
:102CA000FFF72AFCD8E90010CDE90010002017E05A
:102CB0003AF818106A4602A800F080FCB0F1FF3F15
:102CC00081460BD000250DF1080B05E0D4E9012168
:102CD0001BF8050090476D1C4D45F7D308F1010026
:102CE000B0428046E4DB206A384420622046FFF789
:102CF00019FCBDE8FF9F00001A3F01002DE9F041DB
:102D00008046D21D22F007020025D2E90002F529F3
:102D100015A614D0011E72F1000106DA0023D0EBD3
:102D2000030063EB020211A608E0D8F800108B073D
:102D300001D50FA602E0490701D50EA601251146CF
:102D4000002408F1240704E000F04EF830323A5530
:102D5000641C50EA0102F7D12B4632462146404618
:102D6000BDE8F041FFF7B0BE000000002D000000FC
:102D70002B0000002000000030B4002100F12404EA
:102D800008E002F00705D208303542EA4372DB085A
:102D90006554491C52EA0305F3D10468002310A2CC
:102DA000250707D5A40600D421B1C46901230DA2CB
:102DB000641EC46130BCFFF787BE10B504462146CF
:102DC0001068FFF778FE02462046BDE81040002359
:102DD000D2E7D21D22F00701D1E90023CCE70000A1
:102DE000000000003000000030B5B0F10A024FEAE8
:102DF000900E71F100034EEA817EB0EB0E0061EBA4
:102E000091014FEA101E4EEA017E10EB0E0041EBDD
:102E100011114FEA102E4EEA016E10EB0E0041EB3D
:102E200011214FEA104E4EEA014E10EB0E0041EB1D
:102E30001141401841F100014FEAD00040EA4170D1
:102E40004FEAD10110EB80054FEA810444EA907407
:102E500044EB01046D1944EB0404521BA3414FF0F1
:102E6000000348BF0A3200D530BD401C41F10001CB
:102E700030BD70472DE9FF4F0C461E464FF0FF371F
:102E80008BB0D2E90001DDF860800A908A46C1F378
:102E90000A5505B93D46002108464FF00000BAF139
:102EA000000F00F4400005DA00EB80004FF4400111
:102EB00001EA50004FEA9059B9F1010F00DDB9461F
:102EC0000A9850EA4A000ED044F61050A5F2FF3599
:102ED00045432F14B8F1000F1ED07542291E1EDD88
:102EE000C9F100021CE0B8F1010F4FF0000001D061
:102EF000302103E0F24305E02154401CB042FBDBEB
:102F000030460022002121540B99C1F80880C1E904
:102F100000200FB0BDE8F08FBD1B6D1CDEE74A46F8
:102F200000DA694206A800F0B5FB06AB93E807009B
:102F300003AB83E8070050460A9900F063FC8DE874
:102F40000700A0F500501F3800900398002D09DD00
:102F500042F21F014A46084403A90390684600F064
:102F6000C2FE08E0A0F500504A461F3803A90390AE
:102F7000684600F0CCFE8DE807000004000C03D08A
:102F80004FF0FF30410800E01046B8F1000F03D0C9
:102F90000022009215461EE0751E05D4FFF724FF9F
:102FA000303262556D1EF9D5B3460122084302D076
:102FB00000227F1C04E02078302801D100227F1EEF
:102FC000002A099786D01DE0112D07DAFFF70CFFC4
:102FD000303262556D1C50EA0102F5D1084302D02F
:102FE0000098C8B10EE00021681E05E0235C625C19
:102FF00063542254401E491C8142F7DBAB46A81B98
:10300000401E0990002004F80B000B98099AC0F8A4
:103010000880C0E9002B7CE711264FF0000859E733
:103020002DE9F04F88460446D21D22F0070191B0E9
:10303000D1E90001CDE90A0101F0C9F802460B9877
:10304000C00F01D02D2007E02068810701D52B207B
:1030500002E0202101EAC000032A099001D0072ADA
:1030600005DB03464146204600F0D4FA0BE1207808
:10307000800601D5E06900E00620B8F1650F8146C1
:1030800006D0B8F1660F18D0B8F1670F70D131E0F3
:103090000020B9F1110F009001DB112301E009F1CB
:1030A00001030AAA01A90CA8FFF7E4FEDDE90C70F0
:1030B000002609F10105834647E001204B460090B8
:1030C0004FF000470AAA01A90CA8FFF7D3FEDDE9DB
:1030D0000DB00C995D46002610B909F101000D18DC
:1030E000B9EB050003D4C0F1FF3609F10105A5EBEA
:1030F00009002BE0B9F1010F01DA4FF001090020BE
:10310000B9F1110F0090484601DD112300E003469C
:103110000AAA01A90CA8FFF7ADFEDDE90C704D4627
:1031200000268346207800070AD4AB4500DA5D46C6
:1031300001A8012D04DD411911F8011C302907D027
:103140004F4502DA17F1040F04DA012082460FE03E
:103150006D1EEEE7002F02DCED1B3E4403E0781C01
:10316000A84200DD7D1CB81B00F1010A4FF00047AA
:103170002078000703D4AA4501DB4FF0FF3A002175
:10318000B7F1004F0DF143088DF8431024D0022011
:103190002B23002F01DA7F422D230A21021EA0F1EA
:1031A000010000DC5FB197FBF1FC97FBF1F201FB42
:1031B0001C7C17460CF1300C08F801CDEEE7A8F1A5
:1031C000010003702188090501D5452100E0652132
:1031D000A0F1010800F8011C09980FA9A1EB08074C
:1031E000FF1D00B10120411901EBEA70A1693844CB
:1031F000081A401EA0612078C00602D42046FFF7BE
:103200007BF9099828B1D4E901219047206A401C34
:1032100020622078C00622D52046FFF76DF91EE017
:10322000002E04DBB34502DD01A8805D00E0302004
:10323000D4E901219047206A401C2062761CAAF143
:1032400001005FEA000A0AD100F0E0F9C0680168F5
:10325000405CD4E901219047206A401C2062281E6E
:10326000A5F10105DCDC07E0D4E9012118F8010B28
:103270009047206A401C2062381EA7F10107F3DC4A
:103280002046FFF74FF9032011B043E62DE9F04F38
:1032900004460D46D21D22F0070089B0D0E9009700
:1032A0004846394600F093FF0246F80F01D02D231F
:1032B00007E02068810701D52B2302E0202101EAE5
:1032C000C0038DF820300BB1012000E00020032A5C
:1032D000824601D0072A04DB2946204600F09AF9ED
:1032E0003FE12078800601D40D2500E0E569C7F3B1
:1032F0000A560D2D49DA00214FEA175B08464FF0B8
:103300000000002F00F4400007DA00EB80004FF4CB
:10331000400100EBD07001EA60008115012901DD58
:103320004FF0FF3100224FEA850CBCF1180F06D395
:103330001346ACF118004FF08052C24003E04FF446
:10334000801323FA0CF30CF10C0CBCF1200F04D306
:10335000ACF1200C09FA0CF001E007FA0CF000299E
:103360004FF0004801DD18B90FE00ED140450CD3F5
:1033700019EB02095F4121B9404502D19F4329EA77
:103380000209BBEB175F00D0761C2088000502D530
:103390007B48784402E07A487844193808AA3023F8
:1033A00002F80A30037C0AF10101002E0AF1020A38
:1033B00053546A4602DC4FF0300101E04FF0310116
:1033C0004FF001088DF8001002D0A6F2FF3603E09E
:1033D00059EA470100D06B4E002D02DC2178090725
:1033E00004D54FF002082E218DF80110C4460021AB
:1033F0000BE0C7F303433F01C35C491C6D1E02F899
:103400000830052908F1010801DA002DF1DC00215E
:103410000CE000EB1973491C1B786D1E082902F89B
:1034200008304FEA091908F1010801DA002DF0DC33
:1034300021688B0602D516E0A8F10108E04505DDFC
:1034400002EB080313F8013C302BF5D0B8F1000F64
:1034500009DD02EB080313F8013C2E2B03D1090709
:1034600001D4A8F10108002D05DD3E2102F8081065
:103470006D1E08F10108407C002E02F8080008F1DA
:10348000010804DA2D20764202F8080002E02B2021
:1034900002F808000A214FF47A70864208F1010808
:1034A0000BDB96FBF0F3303302F8083096FBF0F3B9
:1034B00008F1010800FB136601E0642E0CDB6420B8
:1034C00096FBF0F3303302F8083096FBF0F308F186
:1034D000010800FB136601E00A2E06DB96FBF1F003
:1034E000303002F8080008F1010896FBF1F001FB0A
:1034F0001060303002F80800A16908F1010808EBFB
:10350000050202EB0A00081AA0612078C00602D466
:103510002046FEF7F1FF216A08AE01EB0A002062A7
:1035200004E0D4E9012116F8010B9047BAF1010A31
:10353000F7D22078C00602D52046FEF7DDFF6E46A2
:1035400009E016F8010B3E280FD0D4E9012190477D
:10355000206A401C2062B8F10108F2D22046FEF732
:10356000E1FF09B00320BDE8F08F206A2844206203
:1035700003E0D4E90121302090476D1EEBD3F8E73A
:10358000F137010002FCFFFF10B5436913B1AFF33F
:10359000008001E0FFF754FB012010BD128800F10C
:1035A000240182840022C2840122EDE711684FF0D9
:1035B000FF32E9E7007B00F08000704770B51646E7
:1035C0000C46054600F01AF8036893F8010101283B
:1035D00006D0FF2C0FD8185D68B101202C7070BD8B
:1035E000D3F807013246214603F207130344284665
:1035F000BDE8704018474FF0FF3070BD10B500F0C7
:1036000005F8001D10BD00BFA51F01000048704750
:103610007C4901202DE9F0411F460446032601683C
:10362000072A01F4006004DB08B116A505E016A521
:1036300003E008B115A500E015A521F010002060F9
:10364000A069C01EA0610FB1401EA0612046FEF718
:1036500053FF4FB1D4E9012138469047206A401CFE
:103660002062C01C206206E0206AFAE7D4E901214A
:1036700015F8010B9047761EF8D22046FEF752FF50
:10368000BDE8F0814E414E006E616E00494E46002D
:10369000696E66002DE9F047814616468AB03348C8
:1036A00078440DC88DE80D0030487844801C03AC88
:1036B0000DC884E80D0041F69B300844372190FB8B
:1036C000F1F290FBF1F5A5F1800501FB12041B3C22
:1036D00002D56442012000E00020DFF890A080467F
:1036E0000027FA44AAF1BE0A0DE0E00709D03246ED
:1036F000684607EB47010AEB810100F008FB8DE803
:10370000070064107F1C002CEFD1184F7F44AC3FA2
:1037100018E0E80714D007EB04100DF1180A90E840
:103720000E008AE80E00C068F04201D19819089096
:10373000324606A903A800F0EAFA03AB83E80700C3
:103740006D10641C002DE4D132466946B8F1000FBB
:1037500003A802D000F0C7FA01E000F0D8FAC9E9E6
:103760000001C9F808200AB0BDE8F08774350100EF
:1037700010B50446AFF300802046BDE81040FEF7C8
:1037800031BD00004FF0013C50F8042B51F8043BD0
:103790009A4221D1A2EB0C03934313EACC1317D125
:1037A00050F8042B51F8043B9A4215D1A2EB0C03BC
:1037B000934313EACC130BD150F8042B51F8043B7C
:1037C0009A4209D1A2EB0C03934313EACC13DBD04A
:1037D0004FF00000704700BFD01A01BAB1FA81F172
:1037E00001F0180122FA01F0CB40C1F12001DBB257
:1037F000C0B2C01A2CFA01F3D11A914311EAC311D5
:10380000E6D170475FEA400C08BF91F0000F4FEA25
:103810008C234FEAC12243EA51514FEA1C5018BF92
:1038200000F5F0404FEA300018BF41F000415FEA78
:103830006C5C00F02980BCF1FF3F08BF40F0804085
:103840007047130C06BF12044FF0100C4FF0000C21
:10385000130E04BF12020CF1080C130F04BF120167
:103860000CF1040C930F04BF92000CF1020CD30F67
:1038700004BF52000CF1010C11464FF00002A0F100
:103880001F00A0EB0C00704711F0004F08BF7047FD
:1038900031F000413FF4D5AF0B0C06BF09044FF0E7
:1038A000100C4FF0000C0B0E04BF09020CF1080CB9
:1038B0000B0F04BF09010CF1040C8B0F04BF89002E
:1038C0000CF1020CCB0F04BF49000CF1010CCCF140
:1038D0002003A0EB0C0022FA03F302FA0CF241EAF7
:1038E000030100F10100704720F07F4C80EA0300E3
:1038F00023F07F47ACEB070303F57C5300F0004057
:1039000003F1FF032DE980494FEA154B09B44FEA53
:10391000144325EA0B4E24EA03480FF2042606EB73
:10392000132749083E785FEA320203FB0667C7F5B2
:10393000000707FB06F64FEA54374FEAD64606F172
:10394000020607FB066CCCF1005C4FEA1C472CEA30
:10395000074C07FB06F40CFB06F504EB15464FEA93
:10396000961634BF00204FF000404FEAD13706FBD7
:1039700007FC4FEA1C4C0CFB0BF7D21B03FB0CF7AC
:1039800061EB07010CFB0EF7B0EB074072EB17423F
:103990000CFB08F734BFA2EB0742B2EB074261EB26
:1039A00017414FEA0C444FEA910706FB07FC4FEA28
:1039B0001C4C0CFB0BF7B0EBC74072EB573203FB10
:1039C0000CF734BFA2EBC742B2EBC74261EB5731F1
:1039D0000CFB0EF7B0EBC70072EB57720CFB08F74D
:1039E00034BFA2EBC702B2EBC70261EB5771039F72
:1039F0004FEA816141EA921104EBCC044FEAD137DE
:103A00004FEA826206FB07FC42EA90124FEA8060AE
:103A10004FEA1C4C0CFB0BF7D21B03FB0CF761EBC2
:103A200007010CFB0EF7B0EB074072EB17420CFBE3
:103A300008F734BFA2EB0742B2EB074261EB174134
:103A40004FEA8C554FEA910704EB9C2406FB07FCD8
:103A50004FEA1C4C0CFB0BF7B0EBC74072EB573234
:103A600003FB0CF734BFA2EBC742B2EBC74261EBDA
:103A700057310CFB0EF7B0EBC70072EB57720CFB23
:103A800008F734BFA2EBC702B2EBC70261EB577174
:103A900015EB4C254FEA816141EA92114FEA8262AF
:103AA0004FEAD13742EA901206FB07FC44F10004CA
:103AB0004FEA80604FEA1C4C0CFB0BF7D21B03FB58
:103AC0000CF761EB07010CFB0EF7B0EB074072EB54
:103AD00017420CFB08F734BFA2EB0742B2EB0742D8
:103AE00061EB174115EB1C154FEA813141EA924118
:103AF0004FEA823242EA90424FEA80304FEA0C7637
:103B000044F1000448EA03434EEA0B484FF0000E2C
:103B1000B2EB080C71EB030724BF624639464EEB4B
:103B20000E0E4FF0000B0018524149414BEB0B0BAE
:103B3000B2EB080C71EB03077BF1000B24BF62466C
:103B400039464EEB0E0E4FF0000B00185241494122
:103B50004BEB0B0BB2EB080C71EB03077BF1000B8B
:103B600024BF624639464EEB0E0E51EA020718BFDB
:103B700046F0010616EB0E7655F1000254F10001F5
:103B800003D5BDE88901BDE80088BDE88901BDE82D
:103B90000048B619524141EB0101A3F101037047FE
:103BA00080807F7E7D7C7B7A79787776767574737A
:103BB000727171706F6E6E6D6C6C6B6A6A69686839
:103BC000676666656464636362616160605F5F5ECF
:103BD0005E5D5D5C5C5B5B5A5A5959585857575645
:103BE00056555555545453535252525151505050AA
:103BF0004F4F4F4E4E4D4D4D4C4C4C4B4B4B4A4AFC
:103C00004A4949494848484747474746464645453F
:103C10004544444444434343434242424241414178
:103C2000002B26D4770021D01CB54FEA370703B408
:103C30004FF010004FF010014FF000000FBCBDE836
:103C400010400BF1010BBBF1010F08BF5FEA170732
:103C500022BF12F1010211F101014FF0004143F1C5
:103C6000000300F0004043EA00007047F9D3570812
:103C7000DAE746EA064613F1400F4FEA16461FDD23
:103C800013F1200FDFBF16430A46002120335B42A9
:103C9000C8D0C3F1200746EA064602FA07F74FEA02
:103CA000164646EA0706C3F1200722FA03F201FA94
:103CB00007F721FA03F14FF0000342EA0702B1E7E8
:103CC00046EA020646EA06464FEA164646EA010674
:103CD000BCBF46EA0646360C4FF000034FF0000228
:103CE0004FF000019EE72DE9C048934630B491E8BB
:103CF000380007C831EA400C48BF34EA430C03D50A
:103D0000FFF7F2FDFFF78CFFF0BCBDE800882DE95E
:103D1000C048934630B491E8380007C810F0804F8F
:103D200008BF13F0804F03D100F005F8FFF778FFCC
:103D3000F0BCBDE8008820F07F4780EA030023F054
:103D40007F4C07EB0C03A3F57C5300F00040A3F17C
:103D5000FE0392F0000F00F0B38095F0000F00F02A
:103D600077802DE901494FEA11404FEA144621EAD4
:103D7000004800FB06FC24EA064708FB06F607FBA2
:103D800008F800FB07F718EB06484CEB164C4FEA17
:103D9000124B18EB07484FEA15464CEB174022EA46
:103DA0000B4E0BFB06FC25EA06470EFB06F607FB4F
:103DB0000EFE0BFB07F71EEB064E4CEB164C4FF0BE
:103DC00000061EEB074E4CEB174B18EB0B0840F1AF
:103DD000000018EB0E0B58EB000840F100008F1AA2
:103DE0004FF000013CBFC943661B14BFB5EB040C88
:103DF00000213CBFC943F61B4FEA17444EEA8E0E22
:103E000027EA04454FEA1C4704FB07622CEA074CEB
:103E100005FB07F70CFB05F604FB0CFC16EB07464D
:103E200042EB174216EB0C4642EB1C421BEB06061C
:103E300058EB0202414146EA9E0601D5BDE80189E0
:103E4000B619524141EB0101A3F10103BDE801891B
:103E50004FEA14454FEA114724EA054621EA074C88
:103E600005FB07F406FB07F70CFB06F105FB0CFC52
:103E700011EB074144EB17444FEA124711EB0C4199
:103E800044EB1C4422EA074C05FB07F206FB07F74C
:103E90000CFB06F605FB0CFC16EB074642EB174243
:103EA00016EB0C4642EB1C456A1854F1000148BF62
:103EB0007047B619524141EB0101A3F1010370476C
:103EC00095F0000F37D04FEA11424FEA144721EA2C
:103ED000024624EA074C02FB07F106FB07F70CFB3E
:103EE00006F402FB0CFC14EB074441EB17414FEACC
:103EF000154714EB0C4441EB1C4125EA074C02FB2F
:103F000007F506FB07F70CFB06F602FB0CFC16EBAD
:103F1000074645EB174516EB0C4645EB1C421219BC
:103F200051F1000148BF7047B619524141EB010100
:103F3000A3F1010370474FEA14454FEA114724EA01
:103F4000054621EA074C05FB07F106FB07F70CFBCA
:103F500006F24FF0000605FB0CFC12EB074241EBAA
:103F6000174112EB0C4251EB1C4148BF70479218AD
:103F700041EB0101A3F10103704700000078012229
:103F80000649002805D0012806D0022800D14A7031
:103F900070470A704A7070470A707047EC830020BF
:103FA000007801220649002805D0012806D0022801
:103FB00000D14A7070470A704A7070470A707047A3
:103FC000C884002002F07CBC0948C16921F00301CB
:103FD000C161016841F008010160016821F0080138
:103FE00001600448416E21F0800141667DF69CBB72
:103FF000005001B0002001B0FEE710B503F0B8F8A2
:1040000010BD000070B503201749096841F3800115
:10401000491C164D00290CD113490C310968C1F314
:10402000000131B110498C39096801F0070188435A
:1040300003D02869401C286170BD0D4C206820F019
:1040400001002060206840F00400206009494FF41E
:104050000030086003F032F9E868401CE86020682E
:1040600040F00100206070BDD4A40040788800209A
:1040700088E2004084E200E007480068C00601D5FD
:104080000648704706480068064900F4E02001EB46
:10409000903000687047000084E3004000D8B80505
:1040A00000A00040506A2100FEE726F677BD000020
:1040B00005280CD2064A116801F4E021B1EB004F4B
:1040C00005D0116821F4E02141EA004010607047FA
:1040D00000A000400249096801F007010170704723
:1040E00000A0004070B50446072C20D2104E306866
:1040F00000F00700A04214D0032008F0B3FCF068E1
:1041000020F0070545F00100F06000BF00BF00BFD0
:1041100000BF204608F0A6FC064850F824002843BB
:10412000F060044804491C3850F82400086070BD51
:1041300000A00040346A21006003002004480068A9
:10414000044900F0070051F8200003490860704757
:1041500000A00040186A21006003002002480168A6
:1041600041F470010160704788ED00E0024800688A
:10417000001D07F075B800007092002002484068EA
:10418000001D07F06DB800007092002002488068A2
:10419000001D07F065B80000709200200248C0685A
:1041A000001D07F05DB80000709200200248006911
:1041B000001D07F055B800007092002002484069C9
:1041C000001D07F04DB8000070920020FEE703B418
:1041D00001984100009850EAC12018BF04204A0D00
:1041E00018BF40F0010040F2FF72B2EB515F08BF10
:1041F00040F00200012808BF052002B070470028E7
:1042000009DB00F01F02012191404009800000F10C
:10421000E020C0F88012704700280DDB00F01F027C
:10422000012191404009800000F1E020C0F8801198
:10423000BFF34F8FBFF36F8F7047002809DB00F08B
:104240001F02012191404009800000F1E020C0F8E8
:1042500000117047002809DB00F01F020121914086
:104260004009800000F1E020C0F8001170470028EC
:1042700004DB00F1E02090F80004704700F00F002C
:1042800000F1E02090F8140D7047002804DB00F1E5
:10429000E02090F80004704700F00F0000F1E020EB
:1042A00090F8140D7047002804DB00F1E02090F82E
:1042B0000004704700F00F0000F1E02090F8140DAA
:1042C0007047002804DB00F1E02090F800047047FC
:1042D00000F00F0000F1E02090F8140D704700008E
:1042E00002480068C0F30220704700000CED00E0B7
:1042F00002480068C0F30220704700000CED00E0A7
:10430000EFF31080704700002DE9F0412DED020B16
:104310009FED3D0B2DED028B9FED3D8BDDE90254B2
:10432000C4F30A50A0F2FF36142E37DA002E18DA42
:1043300053EC102B9DED020B51EC100B11F058F9C2
:1043400053EC182B11F050FD57D2002CBCBF4FF08E
:104350000044002551DB54EA050018BF2E4C1BD148
:104360004BE02E4820FA06F704EA070028431FD046
:1043700053EC102B9DED020B51EC100B11F038F9A2
:1043800053EC182B11F030FD37D2002C03DD4FF425
:104390008010F0400444BC4300252EE0332E07DC9F
:1043A000A6F114004FF0FF3121FA00F73D4206D18B
:1043B0009DED020BBDEC028B02B0BDE8F08153EC29
:1043C000102B9DED020B51EC100B11F09DFD53ECE9
:1043D000182B11F009FD10D2002C0DDD142E08BF92
:1043E000641C09D0C6F13400012101FA00F0284410
:1043F000A84238BF641C0546BD43CDE902549DED7B
:10440000020BD7E7000000009C7500883CE4377E73
:1044100000000000000000000000F03FFFFF0F0060
:1044200010B52DED020B2DED088B84B09DED0C0B1E
:1044300051EC100B11F00EFD41EC180B9DED0C0B27
:1044400053EC182B51EC100B11F06AFD41EC190BD9
:104450000D989FED290B10F0004F53EC102B51ECF1
:10446000190B9FED21AB9FED22BB0ED011F082FB0B
:104470000ED953EC1B2B51EC190B11F0B5FC1CD2CF
:1044800014E000BF41EC180B17E011F073FB06D2EB
:1044900053EC1A2B51EC180B11F042FDF2E753ECE0
:1044A0001B2B51EC190B11F09FFC06D853EC1A2B67
:1044B00051EC180B11F09CF8E4E78DED028B9DEDAB
:1044C0000C0B18EE901A10EE900A8DED000B61F3B4
:1044D0001E0003909DED020B04B0BDEC088B02B0F2
:1044E00010BD000000000000000000000000F03FD0
:1044F000000000000000E03F000000000000E0BFFE
:1045000080F31088704700002DE9F74F07460298A6
:10451000DFF888A1DFF888814FEA500B5C46019DE7
:104520006048CAF800003F20D8F8041060F3050185
:10453000C8F80410D8F8040020F48030C8F804004B
:10454000DAF8000020F4700040EA0750CAF80000D2
:10455000DAF8000020F4702040EA0740CAF80000B2
:104560000D2F05D1DAF8000040F40040CAF8000031
:104570000E2F05D1DAF8000040F48040CAF80000A0
:10458000DAF8000040F40050CAF80000DAF8000041
:1045900020F06050CAF80000DAF8000020F00F00A8
:1045A00040F00300CAF80000002000F0CFF8012816
:1045B00071D1DAF8000040F08040CAF80000002015
:1045C00008E0D8F8081041F48031C8F80810401C01
:1045D000411C05D0D8F80810C1F300210029F0D102
:1045E000072000F0B3F8012855D141E000264FF430
:1045F0007A7924E04E451ED9DAF8000020F0804098
:10460000CAF80000DAF8000040F00040CAF80000E4
:10461000DAF8000020F00040CAF80000002000F0A6
:1046200095F8012837D12049086A401C0862052006
:104630000AF6ECFF72E701200AF6E8FF761CD8F8CC
:104640000800C0F300200028D4D0D8F8080000F0FB
:104650007F02A24200D92246002006E0D8F80010CE
:104660002980090C69802D1D401C9042F6D3A41AA4
:10467000002CBBD10298C00708D0D8F80800C0F3BE
:1046800000200028F9D0D8F800002880BDE8FE4FAF
:10469000002000F05BB8BDE8FE8F000000A80040DD
:1046A00000E000400A070807788800202DE9F04163
:1046B000044615480021C0F8941001214161134DB2
:1046C000686A134EF06200F0010149420140C805DA
:1046D00012D440F2011704E044B1641E01200AF62E
:1046E00095FFA869B84204D1012003E00020BDE88D
:1046F000F08100200028EFD00648006870626868EA
:10470000B0620120F3E7000000D01D4200E000404D
:104710007888002000A8004009480A49826A4A6057
:10472000094B426A1A60808D00F001025242024039
:10473000D00503D4086A20F0010008627047000029
:104740007888002000E0004000A800402DE9F041FA
:104750000546114FF868C0F30240A84202D101207B
:10476000BDE8F081F86820F007002843F8600024D5
:104770004FF6FF76F868C0F30240A84205D001204A
:104780000AF644FF641CB442F4D3B44201D10020C1
:10479000E6E70120E4E7000000E0004070B5074DC7
:1047A0002868002804D105E0846800F0C1F820469C
:1047B0000028F9D10020286070BD00006881002029
:1047C000F0B506462DED068B89B00D469FED459B55
:1047D000202101A8FEF72CF9B0EE498AF0EE698A93
:1047E0004248C08B11F06DF99FED411B53EC112B2A
:1047F00010F0B2FF41EC1A0B102201A93046FFF76E
:1048000083FE002401AF04F1080037F8100011F016
:1048100058F953EC182B10F0EBFE41EC180B641C0C
:10482000E4B2082CEFD351EC180B9FED330B53EC93
:10483000102B11F0DBF941EC180B0D2E02D00E2ECF
:1048400029D046E09FED2E0B51EC100B10F0C4FE6A
:1048500041EC190B688811F034F953EC192B11F065
:10486000C5F941EC190B288811F02BF953EC182BE2
:1048700011F04AFB53EC192B10F06EFF9FED221B39
:1048800053EC112B10F068FF53EC1A2B10F0B0FE14
:1048900041EC190B1DE09FED1E0B51EC100B10F0BD
:1048A0009BFE41EC190B688811F00BF941EC1A0BD7
:1048B000A88811F006F953EC182B11F025FB53ECE6
:1048C0001A2B10F049FF53EC192B11F08FF941EC22
:1048D000190B09B0B0EE490AF0EE690ABDEC068B7F
:1048E000F0BD00000000000000000000B045002006
:1048F0000000000000005940000000000000C03F20
:10490000000000000000004079E9263108AC5CBFDF
:10491000B76DDBB66DDB0E4030380A2801D20120BE
:10492000704700207047704710B502F0EBFB10BDD8
:1049300070470AF00DBC70B504460D462946204666
:104940000FF0F2FB2946204609F01CFC29462046C0
:1049500009F05CFD70BD000070B586B0112000F05C
:104960004FFA01240D4D9226E0B205A900F0E4F9BA
:104970009DF8141004EB840009A205EB8000CDE93A
:104980000062CDE90201084B08A210A1022000F04C
:1049900083FE641C182CE7DB06B070BD8467210021
:1049A0002573202530327800876921002E2E5C5334
:1049B00072635C757365725C616473313239395C42
:1049C000616473313239392E630000004E4F5F54F9
:1049D000414700000FF0CABD10B5002000F0DCF820
:1049E000C820FFF7F7FF012000F0D6F8BDE810401F
:1049F0004FF4FA70FFF7EEBF2DE9FF412F484068F2
:104A0000039000258DF80D5002278DF80C70FC01E5
:104A1000029407268DF80E6002A9012000F032FDF5
:104A200050B127A07721CDE90010244B2CA20833E8
:104A300035A1022000F030FE01222146104600F090
:104A4000BFFD8DF80D508DF80C704FF4007402947A
:104A50008DF80E6002A9012000F014FD50B12CA0C9
:104A60008422CDE90020154B1DA2083326A1022087
:104A700000F012FE00222146012000F0A1FD2C4989
:104A80002C4800F06BFF00280AD02BA08C21CDE928
:104A900000100A4B12A208331BA1022000F0FCFDFB
:104AA00035A09121CDE90010044B0DA2083316A1C9
:104AB000032000F0F1FDBDE8FF810000AC6921009A
:104AC0004146455F52455345545F50494E20696EFB
:104AD0006974206661696C65642E0D0A000000002F
:104AE0002E2E5C5372635C757365725C6164733106
:104AF0003239395C616473313239395F6772353507
:104B000078782E63000000004E4F5F54414700004C
:104B10004146455F53544152545F50494E20696E9F
:104B20006974206661696C65642E0D0A00000000DE
:104B3000455A2000F4820020535049206D6173745F
:104B4000657220696E697469616C206661696C6563
:104B5000642120506C6561736520636865636B2018
:104B600074686520696E70757420706172616D651E
:104B70006E74732E0D0A0000535049206D617374DA
:104B8000657220696E6974616C2073756363657307
:104B900073210D0A000000004FF48071002803D03B
:104BA0000122104600F00CBD0022012000F008BDDB
:104BB0003EB50C464FF47A710091134601462246E9
:104BC000012000F053FF044654B106A0CDE90104D2
:104BD000AA2100910F4B10A219A1022000F05CFD48
:104BE00020463EBD6565672061666520737069205B
:104BF0007472616E736D6974207265636569766540
:104C0000206661696C642C207265742025640D0A2D
:104C100000000000C46921002E2E5C5372635C7595
:104C20007365725C616473313239395C616473310C
:104C30003239395F6772353578782E6300000000AD
:104C40004E4F5F54414700001FB500200390FFF70F
:104C5000D3FEFFF7C1FE112000F0D2F8112000F0C2
:104C6000CFF803A9002000F067F8044664B118A04B
:104C7000A321CDE90010204B20A228A1022000F0A2
:104C80000BFD204604B010BD26A1A722CDE90021CE
:104C90009DF80C000290184B18A220A1032000F0F0
:104CA000FBFC112000F0ACF8FFF756FE112000F0DD
:104CB000A7F8102000F0A4F80120FFF78BFE0820D1
:104CC00000F09EF80120FFF785FE0020DAE70000E3
:104CD00061647331323939207265616420696420FE
:104CE00065727221706C6561736520636865636BC2
:104CF000206974210A0000009C6921002E2E5C535B
:104D000072635C757365725C616473313239395CEE
:104D1000616473313239392E630000004E4F5F54A5
:104D200041470000616473313239392069642025BC
:104D30003032780D0A00000070B586B005460E4688
:104D40000020059045F020018DF8141004900322F6
:104D500004A905A8FFF72CFF04466CB110A0CDE90B
:104D6000010447210091154B15A21DA1022000F05E
:104D700093FC204606B070BD9DF812001AA1CDE943
:104D800001154B22009203900C4B0DA214A103209D
:104D900000F082FC9DF8120030700020EAE700006D
:104DA000616665207265616420726567206661696D
:104DB0006C65642C2025640D0A00000076692100D2
:104DC0002E2E5C5372635C757365725C6164733123
:104DD0003239395C616473313239392E6300000035
:104DE0004E4F5F544147000072656720253032788E
:104DF0002C2076616C756520253032780D0A000014
:104E000001B582B0012201A902A8FFF7D1FE0EBDB3
:104E100003490A6822F4C06242EA402008607047F1
:104E200004A8004006460F46154672B63846FDF700
:104E300047FD402801D9402002E03846FDF740FDFB
:104E400080463046FDF73CFD402801D9402002E075
:104E50003046FDF735FD04469C211048FDF7E8FD7E
:104E6000424639460D48FDF74AFD0C482246314678
:104E70005C30FDF744FD09484FF0AA3101644564F8
:104E80004FF0BB3181644FF0CC3101654FF0DD3123
:104E90008165002000F004F8FEE700002496002061
:104EA00030B5ADF20C4D04464FF4806103A8FDF718
:104EB000BFFD184D202085F83F0085F89B003CB1D0
:104EC0002846012C436DC26C09D0022C0CD00FE097
:104ED000104A11A15C3203A8FDF7DCFA08E011A129
:104EE00003A8FDF7D7FA03E016A103A8FDF7D2FA4D
:104EF00003A90BA2686CCDE90121009018A3054A13
:104F000018A1002000F0C8FB00F092FB0DF20C4D40
:104F100030BD0000249600205B4552524F525D2068
:104F2000257300005B5741524E494E475D2050614A
:104F300072616D303A25642C506172616D313A2591
:104F4000640000005B504152414D5D205061726130
:104F50006D303A25642C506172616D313A256400E0
:104F6000000000006170705F6173736572742E637E
:104F700000000000014894F693BC000094810020DA
:104F800006460F4690461D4672B64046FDF798FC11
:104F9000402801D9402002E04046FDF791FC04463C
:104FA0009C210D48FDF744FD224641460A48FDF785
:104FB000A6FC09484FF05531016445644FF0663155
:104FC0008164C6644FF0773101654765C9438165E7
:104FD0000220FFF765FFFEE7249600202DE9F0414F
:104FE00006460F4690461D464046FDF769FC4028A0
:104FF00001D9402002E04046FDF762FC04469C21B6
:105000000D48FDF715FD224641460B48FDF777FC9C
:1050100009484FF011310164456449008164C66458
:105020004FF03331016547654FF044318165BDE88C
:10503000F0410120FFF734BF2496002010B5094845
:10504000152141710C2101710121C1708170002174
:1050500041700170002000F05DFCBDE81040014887
:1050600000F05ABC0041012010B588B0817AC27AA4
:10507000037B447BCDE90443CDE90621817BC07BE2
:1050800006A29E23CDE90032CDE90201114B12A206
:1050900017A1022000F000FB08B010BD436F6E6E38
:1050A000656374656420776974682074686520702E
:1050B00065657220253032583A253032583A25300D
:1050C00032583A253032583A253032583A25303263
:1050D000582E0000186721002E2E5C5372635C75F9
:1050E0007365725C757365725F6170702E6300002A
:1050F0004E4F5F544147000010B586B004460FA2E2
:105100009623CDE900320291124B13A218A102207E
:1051100000F0C2FA184920467DF6A0FE0446002C95
:105120000AD014220B491C3101A8FDF72DFCADF863
:10513000084001A800F022F806B010BD446973636E
:105140006F6E6E6563746564202830782530325840
:10515000292E0000E86621002E2E5C5372635C75D8
:105160007365725C757365725F6170702E630000A9
:105170004E4F5F5441470000E88200203EB5044690
:105180004FF400711A48FDF731FC207810B1012866
:1051900019D01DE000211748A28830F831309A421A
:1051A00007D100EBC10014A143681148FDF772F963
:1051B0000EE02E2902D0491CC9B2EEE714A10C481A
:1051C000FDF768F904E01DA109486268FDF762F97E
:1051D000074921A22069CDE901210090D4E90223E9
:1051E0001EA1002000F058FABDE83E4000F020BAB1
:1051F00024940020246421004572726F7220636F32
:105200006465203078253034583A2025730000003A
:105210004572726F7220636F646520307825303478
:10522000583A204E6F20666F756E6420696E666F07
:10523000726D6174696F6E2E00000000282573295D
:10524000206973206E6F742065737461626C69737A
:105250006865642E00000000257300006170705FB7
:105260006572726F722E63007047704770477047A7
:105270003EB504460D46204606F034FC8DF800503D
:10528000ADB1218C628C891AADF80410094A52F82C
:1052900020108E314B88ADF8083000230B7052F887
:1052A00020000168002901D0684688473EBD216C76
:1052B0000191EBE78892002070B504460D462078F6
:1052C000002C03D0062803D3E82070BDE52070BD74
:1052D0002E4A04F1400142F82010201D06F014FC73
:1052E0000028F4D1607884F8C000201DC4F8C40000
:1052F0002564182204F128014430FDF745FB20788D
:10530000234D05EBC0004068606404F1440006468C
:1053100005F0DBF80028DAD1304605F083F90028E3
:10532000D5D102220321A5F110000AF0F1FE0120DF
:1053300084F8CC00002084F8CE0016490E200EF030
:10534000B5F815490F200EF0B1F814493A200EF0C7
:10535000ADF813493B200EF0A9F812493C200EF09D
:10536000A5F811493D200EF0A1F8207805EBC0000A
:1053700090F9010022F60EF8207805EBC00090F9B4
:10538000010022F625F8002070BD00008892002060
:10539000F4632100676310005D6310005363100025
:1053A000496310003F63100035631000F8B50D46E7
:1053B0001146069E04461A460120062C01D3E82019
:1053C000F8BD144F57F8243083B193F88CC0BCF16A
:1053D000000F0BD061B15AB1A3F8905057F8244098
:1053E00094F8803033B1012B10D10BE0E920F8BDE7
:1053F000E420F8BD13460A46201D2946009605F014
:1054000086FB03E0201D334605F07AFC0028F0D12E
:10541000F8BD000088920020F8B50D461146069EA2
:1054200004461A460120062C01D3E820F8BD144F8B
:1054300057F8243083B193F88CC0BCF1000F0BD027
:1054400061B15AB1A3F8905057F8244094F88030D5
:1054500033B1012B10D10BE0E920F8BDE420F8BDF9
:1054600013460A46201D2946009605F0B8FB03E0C6
:10547000201D334605F09DFC0028F0D1F8BD00004A
:105480008892002070B58EB005460C46474991E8D9
:105490004D00CDE90A02CDE90C36D1E905230869B2
:1054A00006AEC9690DC6099114224049203101A8F0
:1054B000FDF76AFAD4B13E4906200DF0F7FF3D49E9
:1054C00007200DF0F3FF3C491B200DF0EFFF3B4997
:1054D00012200DF0EBFF35493C39A1F12C02052DCE
:1054E00061D2DFE805F0060606213900E5200EB09E
:1054F00070BD207931F810000B90607932F81000FF
:105500000C90A0790D9020680A902848543850F8E3
:10551000350021880904090C04D018B10AA904F047
:10552000C3FF39E0E420E2E7207901EB4000808A04
:105530000790607902EB4000C0880890A07909903C
:1055400020680690207810F0FF0F03D006A804F022
:1055500027FE21E0E420CAE72079031F042B01D8AD
:10556000E720C4E7022819D001200290207901EB3E
:105570004000008D0390607902EB40008089049028
:10558000A079059020680190207810F0FF0F08D0D6
:1055900001A9002005F092FC0020A8E7022002905B
:1055A000E4E7E420A3E7E620A1E700001C63210074
:1055B000C1611000BB611000B7611000B161100043
:1055C00010B50B461146002903D0012901D0E42073
:1055D00010BD05281CD2DFE800F00303030F130001
:1055E0000C4A52F8300028B19BB20A4619461EF602
:1055F00003FB0BE0E42010BD98B21AF6F3F905E0C6
:1056000098B20A460146002021F696FE002010BD01
:10561000E62010BDC8622100002806D0002904D071
:10562000024AD269002A00D0104770470094002037
:105630000248006A002800D000477047009400200C
:1056400070B50D4616460D4C00280AD00178032986
:1056500011D80121A17601461A222046FDF74FF903
:1056600005E00020A0761A210448FDF7E1F9E56184
:105670002662002070BD012070BD00000094002053
:10568000044A1044807D084201D001207047002068
:1056900070470000009400202DE9FE4FDDF830B087
:1056A00006469246994600240027019702975A48D9
:1056B0000178B14202D2807E00287DD10DF13808F8
:1056C000CDF80080EFF311850220FEF7DEFD0146E4
:1056D00052480068C0F30220401C01228240881812
:1056E000C0B280F3118801213046FFF7C9FF38B1FD
:1056F0004B484C4950F82620204600F0A5F80446B7
:105700001C213046FFF7BCFF00285ED046A2454969
:10571000204600F099F8204484B204213046FFF777
:10572000AFFFF8B152463F49204600F08DF82044C3
:1057300084B208213046FFF7A3FF38B13BA23949B4
:10574000204600F081F8204484B20BE0102130465E
:10575000FFF796FF30B136A23249204600F074F8C8
:10576000204484B208213046FFF78AFF90B14A46B0
:105770002C49204600F068F8204484B210213046BD
:10578000FFF77EFF30B12BA22649204600F05CF8DF
:10579000204484B210213046FFF772FF70B15B469F
:1057A00026A2052101A8FCF78BFE01AA1D4920466F
:1057B00000F04AF8204400E02BE084B220A219490E
:1057C000204600F041F8204484B21648C4F58071A8
:1057D000204443460D9AFCF737FE00974FF4807142
:1057E000002804DB2044884201DC86B200E00E463B
:1057F000B01C884200D9FE2612A20A49304600F0A9
:1058000023F8304481B20748FFF706FFE8B280F37F
:105810001188BDE8FE8F0000009400200CED00E030
:10582000808100200093002028000000200000005C
:105830003A000000204C696E653A0000256C640057
:10584000292000000D0A000030B50546002000297F
:105850000CD0002A0AD006E02B18FF2B06D8CC5417
:10586000521C401C80B21478002CF5D130BD0000D1
:1058700010B5094A06214CF2010090F667FF01F0CD
:1058800091FA00224FF41811104601F0ABFDBDE86B
:10589000104000200AF004BC6A66210010B50848D8
:1058A000017800290AD101210170064891F662FEB3
:1058B000BDE810400021044891F6F2BF10BD000081
:1058C00048810020D5611000E9FF200070B5054631
:1058D00001F0C8FB0E4C0D4E0023D4E90001324606
:1058E000FCF73AFD014628460DF098FC03CC324601
:1058F0000023FCF731FD104619464FF4FA620023ED
:10590000FCF72AFD2881002070BD000080841E0065
:1059100050810020002070473EB5044600210291CE
:1059200002A9204601F060FB20894FF4FA61094B7F
:105930004843029AC117E2FB0301074CC4E9000186
:10594000684600F719FDDDE90001C4E90201002005
:105950003EBD000080841E00508100202DE9F041F2
:1059600005460F462C78002D04D0022C04D3E820E5
:10597000BDE8F081E520FBE72D4E05F1680046F813
:10598000240095F8641080F88F102878291D0DF0F8
:10599000A7FD0028ECD156F82410281DC1F884007A
:1059A00056F82400076056F824001C22083005F140
:1059B0004801FCF7E9FF1F4856F8241050F824006E
:1059C000486095F86400002520B156F824101A4864
:1059D000486202E056F82400456256F82400001D93
:1059E00005F022FB56F82400001D05F041FB11488C
:1059F0000322114608300AF08BFB56F824100120D0
:105A000081F88C0056F8240080F88E500B49052050
:105A10000DF04CFD0A4904200DF048FD054D2D1FE9
:105A2000285721F6B7FC285721F6D2FC00209FE723
:105A300060810020CC632100AFBEADDEDF621000CC
:105A4000D5621000007801220749012800D10A70B0
:105A5000022800D14A70032800D18A70002801D1A1
:105A60000A704A7070470000EC82002038B5049D2F
:105A7000022801D3E82038BD0A4C54F8200060B158
:105A800090F88C404CB151B14AB143B1001D009522
:105A90002AF612F90028EED138BDE92038BDE420FD
:105AA00038BD0000608100202DE9F04104460D461C
:105AB0001746002D04D0012D02D00120BDE8F08151
:105AC000CCB1C7B1EFF311860220FEF7D0FB8046C0
:105AD000FEF706FC401C0121814008EB0100C0B22A
:105AE00080F3118800206070A570E761F0B280F348
:105AF00011880020E2E70120E0E710B50446002C01
:105B00000CD0204600F02EF9FF2060700021A1602B
:105B1000E160216161610020E06110BD012010BDE4
:105B2000F0B5DDE90745059981614FF47A76A2FB6E
:105B3000061C03FB06C3002702FB0732C0E9021262
:105B400009196A41C0E9041200210162F0BD000098
:105B50002DE9F0410446002C13D0EFF3118502200B
:105B6000FEF785FB0746FEF7BBFB401C012606FA45
:105B700000F03844C0B280F311881248002121623D
:105B80000EE00020BDE8F081D4E90432D1E9047CC4
:105B9000DB1B72EB0C0202D2016A216203E00846B1
:105BA000016A0029F0D10462667006481038016865
:105BB000491C0160016B4160E8B280F3118801204B
:105BC000E0E70000B09200202DE9F04105460024F6
:105BD000EFF311860220FEF74AFB0746FEF780FB33
:105BE000401C012181407818C0B280F31188134A0B
:105BF000106BE8B115B102F1100010E00446206A04
:105C000010631068401E10600CE0A94206D11168B4
:105C1000491E1160296A01622C4603E00846016AA8
:105C20000029F2D124B1002020626070106B506016
:105C3000F0B280F311882046BDE8F081A0920020E8
:105C40002DE9FF5F82460E4693464FF00008BAF1F9
:105C5000000F20D0414886421DD8E6B1EFF31187EE
:105C60000220FEF704FB0446FEF73AFB401C01212C
:105C700081406018C0B280F31188504606F0DAFC0B
:105C800010B19AF8010040B1F8B280F311880F20EA
:105C900004B0BDE8F09F0120FAE708F08FF9044650
:105CA0000D464FF47A7106FB01F022462B46002187
:105CB00006F084FBDFF8A890B0B1D9F8040048B131
:105CC000D0E90410091B60EB0500C9E9021008F0D7
:105CD000EFF904E00021C9F80810C9F80C104FF0E2
:105CE0000108D9E9020106E0D9F80400D0E904214D
:105CF000101B61EB0501CDE9020132460023CDF80E
:105D000000B05046FFF70CFF5046FFF721FF0DF0A3
:105D100039FB4FF0E021D1F800014FF0806210F024
:105D2000806F01D0012000E0002018B9C1F8802266
:105D3000C1F80021B8F1000F0AD0D9F80400D0E969
:105D40000431D9E90202181A61EB020108F06CF97A
:105D5000F8B280F3118800209AE70000008AB907A2
:105D6000A09200202DE9F04104460025002C39D0F6
:105D7000EFF311870220FEF77AFA0646FEF7B0FA33
:105D8000401C012181407018C0B280F311886078F6
:105D9000012824D1144E7068A0420BD108F00EF9EE
:105DA000D4E90432181A62EB0102C6E9020208F0D3
:105DB0007FF901252046FFF707FF5DB1706848B104
:105DC000D0E90421D6E90203101A61EB030108F0BF
:105DD0002BF904E01DB9706808B908F069F9F8B248
:105DE00080F31188BDE8F081A092002070B50446D0
:105DF0001A4D55F8240070300CF0B6FC82B21646ED
:105E0000A2B155F8240090F8011101290ED001210A
:105E100080F80411802A0FD355F82400802200F165
:105E2000800170300CF0B5FC80260CE055F8241091
:105E3000002081F8000170BD55F8240000F18001B8
:105E400070300CF0A6FC55F82400324600F18001B9
:105E5000001D2BF6D9F90028EDD170BD70920020FD
:105E6000704700002DE9F84304464B4E56F82400D5
:105E7000071D062C7ED290F86C1000297AD00129DB
:105E800078D180F80111002556F82400D0E90312DA
:105E90000A44017D01F00101C91D02EB01084168BE
:105EA000CA6FC2F38002002AFAD090F80411E1B15F
:105EB000DFF8E8906D1C56F82400001D2AF600FE5D
:105EC00010280BD056F82400D9F800108068B1FBD8
:105ED000F0F000FB08F0B5EBC01FEBD956F824003A
:105EE00070300CF041FC85B226E0B0F82480C58CFF
:105EF000001D2AF603FC56F8240041F2883300EB1B
:105F00000801491B8031001D2A462BF62AF9E5E7D6
:105F100056F824000122703069460CF03AFC56F81D
:105F200024004068C16FC1F340010029FAD09DF8F8
:105F3000001001606D1EADB2002DE9D156F82400AD
:105F400070300CF011FC0028C8D13868416949064E
:105F5000FCD5EFF31085012080F3108856F824005B
:105F600070300CF001FC68B1EFF31081012080F378
:105F7000108800E00DE03868426842F0820242601A
:105F800081F3108856F82410002081F8010185F370
:105F90001088BDE8F88300007092002060030020A4
:105FA0002DE9F04105460F462C78002D05D022B191
:105FB000062C04D3E820BDE8F081E520FBE7384E4D
:105FC00005F1580046F82400D2E900310A46703045
:105FD00019460CF0B4FB291D286D0EF0F1F80028CD
:105FE000E9D156F82410281D486656F824000760A9
:105FF00056F824001822083005F14001FCF7C4FCD3
:10600000284856F8241000EBC4056868486056F824
:106010002400001D05F0FCF856F82400001D05F0D2
:1060200013F920480122032110380AF071F856F8BC
:106030002410012081F86C0056F82410002081F80B
:10604000000156F8241081F8010156F8241081F857
:10605000020156F8241081F8030113490C200DF0B9
:1060600025FA12490D200DF021FA114934200DF0C6
:106070001DFA104935200DF019FA0F4936200DF0A0
:1060800015FA0E4937200DF011FA95F9010021F6A5
:1060900081F995F9010021F69BF900208BE70000BA
:1060A00070920020606321006D4120007D4120003E
:1060B0008D4120009D412000AD412000BD412000C8
:1060C0002DE9F04104461A4D55F8240070300CF0CB
:1060D0004BFB82B2164600277AB155F8240090F89F
:1060E0000111012909D0802A0ED300F180017030FE
:1060F00080220CF04EFB80260BE055F8240080F83F
:1061000000710020BDE8F08100F1800170300CF0DA
:1061100040FB55F8240080F8047155F824003246FD
:1061200000F18001001D2BF633F90028EAD1E9E7E0
:106130007092002070B5062801D3E82070BD0C4D88
:1061400055F820407CB194F86C6066B169B162B1D9
:10615000002684F8026155F82000001D2BF601F896
:106160000028EBD170BDE52070BDE42070BD0000BB
:10617000709200202DE9F84307460C46904604F142
:10618000080520468EF612F80346344E706800214A
:10619000A7F58042DFF8C8C0B2F5804F03D2DCF823
:1061A0000010401A0121E218824202DD0520BDE8FC
:1061B000F8833068421EC2F30B02821A02F6FF72A5
:1061C000C2F3073211B1DCF8001000E00021DFF863
:1061D00094C0DFF89490DCF800C0D9F80090ACEBE4
:1061E000090C96F80990A2EB09020CEBC202101AF6
:1061F000401A001FE918814229DD00254FF40049AB
:1062000011231F2249462846009571F627FA0021DE
:10621000084603F015FD40B113231F224946002014
:10622000009571F61BFA0F20C1E7707A06F004F8AA
:106230000028BCD112231F224946009571F60EFAA0
:10624000424621463846BDE8F8430EF0D1BA4246F0
:1062500021463846BDE8F8430EF0CABA9047002000
:10626000B8350020C4350020BC350020094800683E
:1062700000280DD090F82E10012909D190F8300097
:10628000FF2805D24FF03041086840F08060086078
:1062900070470000400C002010B586B004466846E8
:1062A0006EF640F99DE80E0003A80EC00B4A891C4B
:1062B00021F07041516010466EF622FB07486EF6E1
:1062C00093FB207F002806D1054991F80101054A7A
:1062D00001EB0010426006B010BD00008C290020C8
:1062E000A029002091DE200002F000BF10B58CB084
:1062F00008A80DF029FCBDF8221009989DF821206E
:10630000CDE904109DF820302EA04FF4BC71CDE9EA
:106310000232CDE90010354B35A23BA10220FFF738
:10632000BBF90AA87CF664FB044654B114222F4939
:106330000E3103A8FCF728FBADF8104003A8FEF7C8
:106340001DFF9DF828009DF82910CDE906109DF845
:106350002A209DF82B30CDE904329DF82C109DF8B1
:106360002D002BA240F27D13CDE90032CDE90201D0
:106370001E4B1FA224A10220FFF78EF92FA04FF47D
:10638000C271CDE90010194B19A21FA10220FFF71D
:1063900083F90CF0E9FF02F0CFFA314900207CF6D6
:1063A0005DFD0446002C0AD014221049223103A8B6
:1063B000FCF7EAFAADF8104003A8FEF7DFFE0CB0D8
:1063C00010BD0000476F6F64697820424C45205330
:1063D000444B205625642E25642E25642028636FA7
:1063E0006D6D697420257829000000003E6721004A
:1063F0002E2E5C5372635C757365725C7573657287
:106400005F6170702E6300004E4F5F544147000083
:106410004C6F63616C20426F61726420253032588A
:106420003A253032583A253032583A253032583AE7
:10643000253032583A253032582E000054656D70A0
:106440006C617465206672656572746F732065781F
:10645000616D706C6520737461727465642E0000E8
:10646000E8820020002070470020704710B50CF033
:10647000B7FA0BF0D3FA0DF0EFF80DF04BFF07F081
:1064800039FC06F0E3F80CF083FC0CF089FC05F015
:1064900011F9BDE810400CF095BA00002DE9F0416B
:1064A0003D4C6FF00200C4F898003C4901252806D5
:1064B00008603B4900200860394A1C32106840F0EF
:1064C00002001060106840F001001060106820F0B9
:1064D000020010600B1F186840F001001860186877
:1064E00020F0020018602E4834380168C1F30041E2
:1064F0000029FAD12A4940F2AA2638390F6866F3F2
:1065000001070F600E6826F00C0646F008060E60C4
:106510000E6826F0C00646F080060E60204940F264
:10652000FF3740390E6867F301060E600E6826F0EB
:106530000C0646F00C060E600E6826F0C00646F00B
:10654000C0060E6005600168C1F300410029FAD160
:10655000106820F004001060186820F00400186033
:10656000106840F004001060186840F004001860E3
:1065700001200DF0F8F804F52074206820F04000A8
:106580002060206820F010002060206820F02000AB
:106590002060BDE8F081000000A0004084E200E03F
:1065A000C4A4004010B506F09FFC06F04BFC02F0BE
:1065B00053F906F037FCBDE8104007F0BDB810B540
:1065C00000F008F800201AF669F8BDE81040FFF75F
:1065D00065BF00000F49086820F0040008600D48FE
:1065E0002030026822F0040202600A6842F00202CF
:1065F0000A600A6822F001020A60016841F00101A4
:106600000160016841F002010160016821F00101AF
:1066100001607047C0A4004070B50DF07BFA40F2F5
:106620001A4120B140F24C400DF0E8F803E040F28E
:106630002E400DF0E3F80D4CA07850B1E0880DF03D
:10664000EDF8054620890DF0E9F829460DF028FA05
:1066500005E04FF461714FF47A700DF021FABDE856
:10666000704002484A3008F0C3BC0000788800201F
:1066700010B50446002C0CD0204600F03DF900284F
:1066800007D104494968002903D02046BDE81040DD
:10669000084710BD7C8600203EB5028840F20933D1
:1066A000A2F209314FF480749A421AD037DC40F2DA
:1066B0000D23A2F20D219A4213D01ADC40F20623D8
:1066C000A2F206219A420CD00CDC40F20221A2F286
:1066D00002208A4205DAA2423DD0B2F5007F00D006
:1066E000421C3EBD0329FCD2DFE801F0023948001C
:1066F000F7E7F52950D00ADC0429F2DDF329F0D0C0
:10670000F429EED1BDE83E400830FEF7ADBCF639C5
:106710000429E6D2DFE801F002020247E1E7B1F521
:10672000FF7F47D007DC40F2F712A1F2F710914249
:10673000D7DAF9293EBD40F2F742A1F2F740914283
:10674000F8DAB1F57E7FF5D002DCA1F2F7213EBD8B
:10675000A1F2F9313EBDBDE83E40FFF7C7BD40881C
:106760000028F7D018A1B822CDE9002102901F4BD4
:106770001FA225A10320FEF78FFF3EBD007A00284F
:10678000FBD123A0BF21CDE90010184B18A21EA1F8
:106790000320FEF781FF3EBD017A007903B0BDE81A
:1067A0003040FEF7A9BC007903B00121BDE83040BC
:1067B0007CF6E6BF017A0129EDD18189007903B029
:1067C000BDE8304080F6BEBE416476657274696E85
:1067D000672073746172746564206661696C6564B6
:1067E00028305825303258292E0000002E6721000D
:1067F0002E2E5C5372635C757365725C7573657283
:106800005F6170702E6300004E4F5F54414700007F
:106810004164766572746973696E672074696D6529
:106820006F75742E00000000044A52F8200050F8E2
:106830004B2F0A6080888880704700001419002060
:1068400070B504460E46002C05D00F4885F6ACFB0B
:10685000054615B113E0022070BD142093F63EFAF0
:10686000014671B10C6120680088C880CE60074A7B
:1068700010780871401C1070101D06F09DF8284615
:1068800070BD102070BD0000E869210068870020FD
:1068900000B5AFB0094901200870FF22B82101A856
:1068A000FBF7A6FC4FF48070ADF804000020ADF8B3
:1068B000060001A8FFF7DCFE2FB000BD7C8600209B
:1068C00000214FF03040C1608161C0F8D011C11784
:1068D00041610162C0F8D81103496FF4806008601B
:1068E0000220FDF78CBC000084A00040014900207C
:1068F00001F078BBE9CF200010B50446002C22D06F
:106900000021228840F20253A2F202509A4279D02A
:1069100033DC40F20643A2F206409A425DD01BDC13
:1069200040F20243A2F202409A424ED00DDCA2F5A0
:106930004072013A3DD0012A3BD0FF2A41D0B2F546
:10694000807F55D13FE0002010BD01283FD00228B4
:106950003FD003284CD13EE0042846D006DC012875
:106960003DD002283DD0032842D13CE005283ED04E
:10697000FA2842D0FB283BD144E0082847D007DC66
:10698000082835D2DFE800F0343E3E3E3E3E3E432E
:106990000C283CD006DC092839D00A2837D00B282F
:1069A00026D134E00D2832D00E2830D0FF281FD158
:1069B00032E0204602F0E4FF204602F06DFD0020A8
:1069C00010BD218914E0218912E0218910E061893C
:1069D0000EE0218A0CE021890AE0618908E0A189A2
:1069E00006E0618904E0A18902E0218A00E0618972
:1069F0002046BDE8104003F091B82046BDE81040A5
:106A000002F03ABF2046BDE8104002F0A1BE204689
:106A1000BDE8104002F09ABD204602F091FC002033
:106A200010BD000070B500204FF0304188610F4C60
:106A3000D4F8040220F07000C4F8040200250868AD
:106A400040F48070086000F79AF9FFF739FF681F7B
:106A5000A0601920FDF7D3FB05480570D4F80802A3
:106A600020F00100C4F8080270BD00007CA00040C6
:106A7000548A002070B50446002C1CD00225114E0B
:106A8000F079844210D0304690F90610ACB1032062
:106A9000C91CB1710C490A6800EB92030A6863F3E0
:106AA00089020A600BF02EFFF4710849086C65F347
:106AB0008710086470BD0025E1E76FF00200C91E71
:106AC000B171E7E7088A0020201101B0002001B071
:106AD0002DE9F04105460E4614461F46204600F0BB
:106AE00033F83B46224631462846BDE8F04184F65D
:106AF0005DB82DE9F04105460E4614461F46204676
:106B000000F022F83B46224631462846BDE8F041D7
:106B100084F682BA2DE9F04105460E4614461F461A
:106B2000204600F011F83B46224631462846BDE893
:106B3000F04184F6D9BA000002490878FF220A70B1
:106B4000704700005E8A002010B5C0B283F60AFBD1
:106B500001491438087010BD5E8A002010B5132159
:106B60000A480AF0F1FD0521084898300AF0F2FDC4
:106B70000121064808380AF0E1FDFFF777FCFFF72E
:106B800011FDBDE81040FFF7AFBB00000C7C0020FA
:106B90000A460146002007F051BE30B58568027BE9
:106BA000002D02D0002001210CE0104630BDCB08A2
:106BB00001F00704EB5CE340DB0701D0401CC0B2EE
:106BC000491CC9B28A42F2D830BD000000230849EE
:106BD000496808E00A89824204D84A89824201D37E
:106BE000CB6802E009680029F4D11846704700001C
:106BF0006887002001460548406803E002798A4220
:106C000002D000680028F9D1704700006887002092
:106C1000F0B5AFB0204E7078FFF7ECFF04462000CF
:106C20000AD02169E08809680880206981F62CFA79
:106C3000054600271DB124E00C202FB0F0BD2069CF
:106C4000FFF7ABFF014620690268128822810068C5
:106C5000008808446081E06898B1FF22B82101A84B
:106C6000FBF7C6FA40F20C40ADF80400ADF8067030
:106C70002089ADF80C006089ADF80E00E16801A82C
:106C800088477078401CC0B270703178884200D15B
:106C90007770E8B2D1E70000688700201FB51A4C72
:106CA0002078002802D0012004B010BD00200390FD
:106CB00003A892F67DFE68466DF634FC1348DDE9C4
:106CC0000031029AC0E9003182600398400891F6D1
:106CD000C7F90F498860022008614FF03042106BFD
:106CE00040F007001063086840F07000086010680A
:106CF00020F48070106083F6EFF80120207000F718
:106D0000E7F80120D0E70000548A0020944B0020CF
:106D100080A2004070B50024EFF31085012080F3BD
:106D2000108808480068C0F38000002801D00224C1
:106D300003E0FFF7B3FF00B1022485F3108820467B
:106D400070BD000080A2004010B5084A1378002BE7
:106D500001D00F2010BD31B150600448083000F060
:106D600007F8002010BD022010BD00007C86002026
:106D700070B504460D46FFF7B9FD084901200CF037
:106D800095FB074902200CF091FBFFF7E7FE29462F
:106D90002046BDE8704085F68DBA00009D170800BA
:106DA0003D1608002DE9FC4100F0C2F84FF0400804
:106DB000CDF8008002248DF804408DF805400725A9
:106DC0008DF8065069460320FEF75CFB0122402146
:106DD0000320FEF7F5FB802600968DF804408DF821
:106DE00005408DF8065069460420FEF74BFB012252
:106DF00080210420FEF7E4FBA70300978DF80440F0
:106E00008DF805408DF8065069460120FEF73AFBE3
:106E1000012239461046FEF7D3FBCDF800808DF8ED
:106E200004408DF805408DF8065069460020FEF7B5
:106E300029FB002240211046FEF7C2FB00968DF888
:106E400004408DF805408DF8065069460020FEF795
:106E500019FB002280211046FEF7B2FBBDE8FC8141
:106E600010B51248016821F0070141F004010160EA
:106E70000A2008F6CBFB0D488438016821F48071A4
:106E800001600121002023F667FE012019F606FCAF
:106E90000749022008700CF085FA064932200CF0F0
:106EA00005FBBDE810403220FDF7C7B990A80040AF
:106EB00044880020FB3F200010B519480068C0F34B
:106EC0000B0017490831096821F07F41401C00EE92
:106ED000100ADFED140AB8EE400A60EE200A00EE58
:106EE000101A1149B8EE400A80EE801AB6EE000A78
:106EF00031EE000ABCEEC00A10EE100A486008F03D
:106F00003BF80CF03DFE0948016841F480710160D6
:106F100006488430016821F00701016010BD0000BF
:106F200004E400400024F44B448800200CA80040F6
:106F300000B587B000F01EF803208DF800001D207A
:106F40008DF8160001208DF817008DF818008DF8C7
:106F50001900044A04496846FEF772FBFEF70AF876
:106F600007B000BD6D6F2000D96F20000220FEF732
:106F700079BF00007CB5144800904FF48060019008
:106F80001248022303704FF4E13101640324446486
:106F900000218164C16401650122426501745502CA
:106FA0004561427402760171150285604271017378
:106FB00007494163816380F83C3080F83D406A4670
:106FC0000449FEF7EDFF7CBD648B0020648F002038
:106FD00000900140615E20000A4601464FF47A733A
:106FE0000220FFF7A7B8000070B54279642302F5CC
:106FF000FA62B2FBF3F403FB142242F6CD2340F213
:107000006D145443D51C04EB95041C44037940F2E1
:107010006F1513FB05F50C26A5F5B57595FBF6F573
:10702000022B01D8002202E0920716D00222AA1AEF
:107030002244C378521E1344094A534382784FF4C2
:10704000616412FB04F442780078C2EB021204EB94
:10705000820218441044086070BD0122E7E7000076
:10706000805101007CB5EFF31084012080F310887B
:107070006846FFF681F9104B009840F271261968B6
:10708000401A20F07045BDF8040000221146E5FBCF
:1070900006019B88C01A61EB0201074A083AD2E94F
:1070A000005328184B41C2E90003DDE90001C2E9A1
:1070B000020184F310887CBD588100200A2804D87E
:1070C00040F6641101EB40007047242804D840F6D4
:1070D000661101EB40007047252804D0262805D012
:1070E0004FF41B60704740F66210704740F67A100C
:1070F0007047A0F50010B0F5005F01D20120704785
:1071000000207047052110F1190F01DC022110E069
:1071100000F114020F2A01D803210AE00F2801D838
:10712000042106E0A0F11402192A02D932280CDB4E
:10713000062106480268C2F303328A4205D002687B
:1071400022F4704242EA01310160704714A8004005
:1071500010B50021084623F6FFFC012019F67EFA3F
:107160000248816821F48071816010BD00A0004058
:1071700010B514480068C0F30000002807D011487B
:1071800008380068C0F3000008B10CF063F90E483D
:107190000068C0F3000038B10B4808380068C0F33D
:1071A000000008B100F00CFD0CF0E2F8002807D058
:1071B00004F0BEFA002803D0BDE81040FFF7C8BFB6
:1071C00010BD000008E4004008E5004010B50CF0D8
:1071D00061F900F0A1FC10BD10B502F0EDFF07F061
:1071E00047FA08F08DFFBDE8104000F09BB80000A2
:1071F0002DE9FC4104468846164D4FF6FF76164FA2
:1072000012E02968082201EB0030694685F602FB8E
:10721000082802D01020BDE8FC81BDF80000B04273
:1072200008D12078401C20702078797A8842E8D3F1
:107230000020F0E709489DF80010C170BDF8021069
:1072400081809DF8011088F800102178417000209D
:10725000E1E70000BC35002090470020C835002041
:1072600010B51248016821F0004101600F23011D93
:107270000A6863F31F720A600A6822F4E07242F43B
:10728000C0720A60016841F000410160084801686D
:1072900041F001010160074931200CF007F906496E
:1072A0004FF40030C1F8000110BD000004A90040F7
:1072B00088E200400540200004E000E0F8B5EFF36C
:1072C0001085012080F31088072000906846FCF7A5
:1072D00001FF0220FCF706FF322008F697F90B4C5D
:1072E000206840F002002060094E708908F68EF98F
:1072F000206820F002002060B08908F687F99DF828
:107300000000FCF7EFFE85F31088F8BD04A90040EB
:10731000DC88002008B500906A460121092082F629
:1073200067FE08BD024901480860704709751000F2
:10733000CC05002010B5044601216068017010489A
:10734000636802785A7002886368120A9A70026849
:107350006368120CDA7000686268000E1071606871
:10736000417161682822891D064803F065F822886A
:107370003621606885F6F0FF03490020087010BDD3
:10738000C0960020002020008037002010B5406803
:1073900001780F48012914D00E49C1620BF0C4FFD7
:1073A0000D4C4FF4805120468DF692FA3022084958
:1073B00020468DF6CDFA0BF0C9FFBDE81040FFF670
:1073C00041BA0649C16206490020087010BD00009C
:1073D000C0960020424E42530030200042594244A1
:1073E0008037002070B504460D46164630211748F8
:1073F000FBF71EFB0CB11648446015493246283194
:10740000134885F673FE11480560124A01210020D9
:1074100085F6CAFF104A2321072085F6C5FF0F4ACB
:107420002421082085F6C0FF0D4A2521092085F674
:10743000BBFF0C4A41211C2085F6B6FF0A4A4221B7
:107440001D2085F6B1FF002070BD0000C096002011
:10745000BC810020019F2000E5F42000A1F3200062
:1074600095F220008D7320003573200010B585F64D
:1074700029FFBDE8104000F083BCFFF7F7FF642050
:107480000DF074F8F9E700001CB5002801D004499C
:10749000886104480190684607F036FA1CBD000078
:1074A000A0810020D9E72000024901480860704708
:1074B000C9701000440D002001200C490968002902
:1074C00001D0002070470A49CA690AB100207047FC
:1074D0008A690AB100207047044A28321268896814
:1074E000491E8A42F7D1022070470000CCB000202C
:1074F0003082002010B592F621FB002800D0FEE774
:1075000010BD00000148408B70470000744500200A
:1075100000B585B000210191029103910491124AB6
:10752000537E127E1B0243EA0040104300900191FB
:107530000291039104910120029001A802F082FEC1
:1075400001A802F089FE01236A464A2101A802F03F
:10755000DDFE0F23044A442101A81BF633FD01A8D8
:1075600002F070FE05B000BD7445002070B50646FF
:107570000C4615466FF4004010EAC43F05D040F2B7
:107580004D420AA10FA000F6C9FBE80B05D040F25E
:107590004E4206A11AA000F6C1FB9420464327489C
:1075A00045EAC4313044A0F8661170BD72665F6769
:1075B00064785F62616C695F62315F706174636897
:1075C0002E63000028282875696E7431365F74298F
:1075D000727877696465203C3C203135292026206B
:1075E0007E282875696E7431365F742930783030A2
:1075F0003030383030302929203D3D203000000027
:1076000028282875696E7431365F74297278776915
:107610006E737A203C3C2030292026207E28287555
:10762000696E7431365F74293078303030303746C7
:1076300046462929203D3D2030000000008000B052
:10764000024928220248FBF75AB90000086B2100C2
:10765000008100B000B500F00BF85DF804EB04F019
:10766000F7B8000001480078704700004C43012043
:1076700030B5084C012525706060E2602361A1608F
:1076800005488068884201D2081A00E0401A60610B
:1076900030BD00004C4301206088002010B504F08C
:1076A000B1F8044618210548FBF7C2F9034A002146
:1076B00011702046BDE8104000F046B94C4301204F
:1076C000F0B404460E462C482C4FB9680578026287
:1076D00044628C4201D9631A00E00B1BFF689F4291
:1076E00006D3134632462146F0BC0020FFF7B2BF56
:1076F00087699F4201D98361C261012D0AD0022DA1
:1077000027D0032D36D1134632462146F0BC002047
:10771000FFF7A0BF44618C4203D90169491EC160D3
:1077200002E00169491C8160D0E90212914209D24C
:107730001144490801610121017001693046F0BC22
:1077400000F01EB80221017081683046F0BC00F0E4
:1077500017B8C169914206D1134632462146F0BCA2
:107760000020FFF777BF03210170C1693046F0BCEC
:1077700000F006B8F0BC7047F44201206088002099
:10778000054A936A5B1C93628AB2C1B20348044BF8
:10779000406803F0DBBF0000F44201206088002055
:1077A000C176200070B505460D4C2C212046FBF714
:1077B0003FF90020A06040F2FF10E060FF2222614C
:1077C0004FF0FF30A061A06A401CA0620120207031
:1077D0000448E9B2044B4068BDE8704003F0B6BF0E
:1077E000F442012060880020C17620002DE9F84392
:1077F00007460D4690462E4C207801280BD00228D3
:1078000013D00820E06101B043462A463946BDE85E
:10781000F043FFF71FBFE76040F2FF1121612846E8
:10782000BDE8F843022200F079B8002600966761AF
:10783000684600F03FF870B1012810D002281FD030
:1078400003282DD00720E06143462A463946FFF73A
:1078500001FFBDE8F8832846FFF7A4FFF9E70F2DE5
:1078600006D23146A6600122681C00F057F8F0E706
:107870000520E06143462A463946FFF7EBFEE8E77C
:1078800035B1A66001220021681E00F047F8E0E74C
:107890000620E06143462A463946FFF7DBFED8E77B
:1078A0000098E06143462A463946FFF7D3FED0E709
:1078B000D442012010B5174B17490A698968154C45
:1078C000DB6864698B4203D98C4201D9022010BD68
:1078D0008B4203D28C4201D2012010BD8B4201D9D0
:1078E0005B1A00E0CB1A8C4201D9611A00E0091B37
:1078F000934203D3914201D3002010BD934201D2A1
:10790000022010BD914201D2012010BD0221016070
:10791000032010BDD44201206088002030B4074B02
:107920009C69641C9C6158601A708AB2C1B2044898
:10793000044B406830BC03F009BF0000D442012072
:1079400060880020ED77200070B50546064C2021A8
:107950002046FBF76DF80021A1602846BDE8704085
:107960000122FFF7DBBF0000D4420120F8B50E462C
:107970001F4C00250095E169491CE1616660A26029
:10798000E1682161E0601B498B68834201D2C01A23
:1079900000E0181A6169814201D96061A2616846FC
:1079A00000F02AF858B101280ED0022814D003287C
:1079B00018D00098A062204600F0BFF8F8BDA5627C
:1079C000204600F0BAF8F8BD012084F820003046C7
:1079D000A16900F077F8F8BDA1683046491C00F0B5
:1079E00071F8F8BDA1683046491E00F06BF8F8BD8B
:1079F00020430120608800202DE9F0432F4A304FBA
:107A0000B96800250026D3688B4201D95C1A00E0D2
:107A1000CC1AFF68A74202D30020BDE8F083D2F859
:107A20002480B8F1010F10D092F82040012C0ED024
:107A3000224CD2F81CC04FF00109A769A468C445C4
:107A40000BD3A74205D10020E7E70020E5E700209F
:107A5000E3E782F820900120DFE7BCF1010F11D9A4
:107A6000D2F810C08C4501D98B4203D38C4509D282
:107A70008B4207D9A74201D10020CEE782F820909F
:107A80000120CAE78B4201D9012600E0012545B15A
:107A9000B4F5FF7F03D9092101600420BDE702206E
:107AA000BBE736B10CB10320B7E70A21016004201F
:107AB000B3E70B2101600420AFE700002043012061
:107AC000608800208AB2C1B20248034B406803F0CC
:107AD0003DBE0000608800206D79200070B504462E
